:100000000C9435000C945D000C945D000C945D0024
:100010000C945D000C945D000C945D000C945D00EC
:100020000C945D000C945D000C945D000C945D00DC
:100030000C945D000C945D000C945D000C945D00CC
:100040000C94AB020C945D000C941B030C94F50211
:100050000C945D000C945D000C945D000C945D00AC
:100060000C945D000C945D00A90411241FBECFEF19
:10007000D8E0DEBFCDBF11E0A0E0B1E0E8E7FEE0F0
:1000800002C005900D92A234B107D9F721E0A2E495
:10009000B1E001C01D92AC3EB207E1F710E0C5E34C
:1000A000D0E004C02197FE010E943407C433D10779
:1000B000C9F70E944D030C943A070C9400008E502F
:1000C000806480937C0080917A00806480937A00C1
:1000D00080917A0086FDFCCF809178009091790024
:1000E0000895AF92BF92CF92DF92EF92FF920F935B
:1000F0001F93CF93DF936C017B018B01040F151FBE
:10010000EB015E01AE18BF08C017D10759F0699125
:10011000D601ED91FC910190F081E02DC601099589
:10012000892B79F7C501DF91CF911F910F91FF9036
:10013000EF90DF90CF90BF90AF900895FC01538D6A
:10014000448D252F30E0842F90E0821B930B5417B1
:1001500010F0CF96089501970895FC01918D828D3E
:10016000981761F0A28DAE0FBF2FB11D5D968C91D7
:10017000928D9F5F9F73928F90E008958FEF9FEF16
:100180000895FC01918D828D981731F0828DE80FD2
:10019000F11D858D90E008958FEF9FEF0895FC018C
:1001A000918D228D892F90E0805C9F4F821B910959
:1001B0008F73992708958FE491E00E94CF0021E08A
:1001C000892B09F420E0822F089580E090E0892BAC
:1001D00029F00E94DB0081110C9400000895FC01BD
:1001E000A48DA80FB92FB11DA35ABF4F2C91848D98
:1001F00090E001968F739927848FA689B7892C93F5
:10020000A089B1898C91837080648C93938D848D47
:10021000981306C00288F389E02D80818F7D80834A
:100220000895EF92FF920F931F93CF93DF93EC010A
:1002300081E0888F9B8D8C8D98131AC0E889F9898D
:10024000808185FF15C09FB7F894EE89FF89608390
:10025000E889F98980818370806480839FBF81E011
:1002600090E0DF91CF911F910F91FF90EF90089553
:10027000F62E0B8D10E00F5F1F4F0F731127E02E2E
:100280008C8D8E110CC00FB607FCFACFE889F98966
:10029000808185FFF5CFCE010E94EF00F1CFEB8D7D
:1002A000EC0FFD2FF11DE35AFF4FF0829FB7F8943A
:1002B0000B8FEA89FB8980818062CFCFCF93DF9358
:1002C000EC01888D8823B9F0AA89BB89E889F9896E
:1002D0008C9185FD03C0808186FD0DC00FB607FCA3
:1002E000F7CF8C9185FFF2CF808185FFEDCFCE01D6
:1002F0000E94EF00E9CFDF91CF910895FC010190BA
:100300000020E9F73197AF01481B590BBC018FE47E
:1003100091E00C9471008F929F92AF92BF920F93D5
:100320001F93CF93DF93CDB7DEB7A1970FB6F894A5
:10033000DEBF0FBECDBF19A2423008F44AE08E01E5
:100340000F5D1F4F842E912CB12CA12CA50194017F
:100350000E941207E62FB901CA01EA30F4F4E05D09
:10036000D801EE938D01232B242B252B79F790E0D8
:1003700080E0109719F0CD010E947E01A1960FB682
:10038000F894DEBF0FBECDBFDF91CF911F910F91CB
:10039000BF90AF909F908F900895E95CE1CF4F920E
:1003A0005F926F927F928F929F92AF92BF92CF9205
:1003B000DF92EF92FF920F931F93CF936B017C011B
:1003C000742EAC019B010E940D07882399F082E1F5
:1003D00091E0CF911F910F91FF90EF90DF90CF9020
:1003E000BF90AF909F908F907F906F905F904F9055
:1003F0000C947E0146015701E894B7F82FEF3FEFC8
:100400004FE75FE7C501B4010E940D0781110DC0E0
:100410002FEF3FEF4FE75FE7C501B4010E944305AF
:1004200018161CF486E191E0D4CF2FEF3FEF4FE791
:100430005FE4C701B6010E949B0618161CF48AE10E
:1004400091E0C7CF2FEF3FEF4FE75FECC701B60159
:100450000E94430587FDF3CF20E030E0A901C701EA
:10046000B6010E94430510E000E087FF0AC06DE27C
:100470008FE491E00E9411018C01F7FAF094F7F8F3
:10048000F094C0E060E070E080E09FE37C1641F013
:1004900020E030E040E251E40E944805CF5FF6CF13
:1004A000A70196010E94D7042B013C010E94BA05C6
:1004B0004B015C014AE00E948B017C01E00EF11EC1
:1004C000CC23C1F1C501B4010E94E9059B01AC0137
:1004D000C301B2010E94D6044B015C016EE28FE4BD
:1004E00091E00E941101E80EF91EC15018F120E0C0
:1004F00030E040E251E4C501B4010E94A0062B01A6
:100500003C010E94BA054B01B12CA12C4AE0C50167
:10051000B4010E948B01E80EF91EC501B4010E94CE
:10052000E9059B01AC01C301B2010E94D6044B0155
:100530005C01DBCFC701CF911F910F91FF90EF902E
:10054000DF90CF90BF90AF909F908F907F906F90F3
:100550005F904F9008951F920F920FB60F92112443
:100560002F933F938F939F93AF93BF9380914B01B2
:1005700090914C01A0914D01B0914E0130914A01F2
:1005800023E0230F2D3758F50196A11DB11D2093AF
:100590004A0180934B0190934C01A0934D01B0937D
:1005A0004E018091460190914701A0914801B09180
:1005B00049010196A11DB11D809346019093470109
:1005C000A0934801B0934901BF91AF919F918F9142
:1005D0003F912F910F900FBE0F901F90189526E816
:1005E000230F0296A11DB11DD2CF1F920F920FB6FD
:1005F0000F9211242F933F934F935F936F937F93A9
:100600008F939F93AF93BF93EF93FF938FE491E00A
:100610000E94EF00FF91EF91BF91AF919F918F9159
:100620007F916F915F914F913F912F910F900FBEEE
:100630000F901F9018951F920F920FB60F921124D2
:100640002F938F939F93EF93FF93E0915F01F0912E
:1006500060018081E0916501F091660182FD1BC01F
:100660009081809168018F5F8F732091690182175B
:1006700041F0E0916801F0E0E15BFE4F958F8093DF
:100680006801FF91EF919F918F912F910F900FBE75
:100690000F901F9018958081F4CF789484B5826074
:1006A00084BD84B5816084BD85B5826085BD85B516
:1006B000816085BD80916E00816080936E00109294
:1006C000810080918100826080938100809181000F
:1006D00081608093810080918000816080938000A0
:1006E0008091B10084608093B1008091B0008160FE
:1006F0008093B00080917A00846080937A0080912A
:100700007A00826080937A0080917A008160809381
:100710007A0080917A00806880937A001092C100FC
:10072000E0915F01F091600182E08083E0915F01E0
:10073000F09160011082E0915B01F0915C01108208
:10074000E0915D01F0915E0180E18083109267018C
:10075000E0916301F091640186E08083E0916101A2
:10076000F0916201808180618083E0916101F0916C
:100770006201808188608083E0916101F091620173
:10078000808180688083E0916101F09162018081C5
:100790008F7D808338EE432E33E0532E612C712CF5
:1007A00040E0242E40E0342E9FB7F894C0904601DC
:1007B000D0904701E0904801F090490186B5A89B90
:1007C00007C08F3F29F02FEFC21AD20AE20AF20ABD
:1007D0009FBFFE2CED2CDC2CCC24C80ED11CE11CC0
:1007E000F11C22E0CC0CDD1CEE1CFF1C2A95D1F77D
:1007F0008EE00E945F005C018FE00E945F008C0130
:1008000080E10E945F00EC0181E10E945F004C01E9
:100810008091420190914301A0914401B091450122
:10082000A7019601281B390B4A0B5B0BDA01C901A2
:10083000843F9140A105B10508F47FC0C0924201F8
:10084000D0924301E0924401F09245018EE191E0A3
:100850000E947E01B501BB0C880B990B0E94EB0531
:1008600020E030E44CE955E40E94A00620E030ECA2
:100870004FE754E40E94480544E00E94CF0184E21F
:1008800091E00E947E01B801110F880B990B0E9424
:10089000EB0520E030E44CE955E40E94A00620E09E
:1008A00030EC4FE754E40E94480544E00E94CF0139
:1008B0008BE291E00E947E01BE01DD0F880B990B57
:1008C0000E94EB0520E030E44CE955E40E94A006CC
:1008D00020E030EC4FE754E40E94480544E00E94D9
:1008E000CF0182E391E00E947E01B401990C880B54
:1008F000990B0E94EB0520E030E44CE955E40E949E
:10090000A00620E030EC4FE754E40E94480544E0A4
:100910000E94CF0189E391E00E947E01C701B601E8
:10092000A30192010E941207CA01B9014AE00E9484
:100930008B018FE391E00E947E012114310409F4C0
:1009400033CF0E94DB00882309F42ECF0E940000E1
:100950002BCFEFE4F1E01382128288EE93E0A0E067
:10096000B0E084839583A683B78384E091E091838C
:10097000808385EC90E09587848784EC90E097876E
:10098000868780EC90E0918B808B81EC90E0938B5C
:10099000828B82EC90E0958B848B86EC90E0978B39
:1009A000868B118E128E138E148E08955058BB278D
:1009B000AA270E94EE040C9461060E94530638F0A8
:1009C0000E945A0620F039F49F3F19F426F40C9443
:1009D00050060EF4E095E7FB0C944A06E92F0E94BE
:1009E000720658F3BA17620773078407950720F059
:1009F00079F4A6F50C9494060EF4E0950B2EBA2F1C
:100A0000A02D0B01B90190010C01CA01A001112414
:100A1000FF27591B99F0593F50F4503E68F11A16C0
:100A2000F040A22F232F342F4427585FF3CF469551
:100A300037952795A795F0405395C9F77EF41F1673
:100A4000BA0B620B730B840BBAF09150A1F0FF0F3D
:100A5000BB1F661F771F881FC2F70EC0BA0F621F29
:100A6000731F841F48F4879577956795B795F79519
:100A70009E3F08F0B0CF9395880F08F09927EE0FAE
:100A80009795879508950E94260608F481E00895B9
:100A90000E945C050C9461060E945A0658F00E9460
:100AA000530640F029F45F3F29F00C944A06511197
:100AB0000C9495060C9450060E94720668F39923D4
:100AC000B1F3552391F3951B550BBB27AA2762174A
:100AD0007307840738F09F5F5F4F220F331F441F57
:100AE000AA1FA9F335D00E2E3AF0E0E832D091508B
:100AF0005040E695001CCAF72BD0FE2F29D0660F78
:100B0000771F881FBB1F261737074807AB07B0E8BA
:100B100009F0BB0B802DBF01FF2793585F4F3AF0C0
:100B20009E3F510578F00C944A060C9495065F3F61
:100B3000E4F3983ED4F3869577956795B795F79546
:100B40009F5FC9F7880F911D9695879597F908952E
:100B5000E1E0660F771F881FBB1F621773078407CA
:100B6000BA0720F0621B730B840BBA0BEE1F88F7D9
:100B7000E09508950E947A0688F09F5798F0B92F63
:100B80009927B751B0F0E1F0660F771F881F991FC2
:100B90001AF0BA95C9F714C0B13091F00E949406CA
:100BA000B1E008950C949406672F782F8827B85FDA
:100BB00039F0B93FCCF3869577956795B395D9F71A
:100BC0003EF490958095709561957F4F8F4F9F4F24
:100BD0000895E89409C097FB3EF490958095709530
:100BE00061957F4F8F4F9F4F9923A9F0F92F96E979
:100BF000BB279395F695879577956795B795F111EE
:100C0000F8CFFAF4BB0F11F460FF1BC06F5F7F4F8A
:100C10008F4F9F4F16C0882311F096E911C077239C
:100C200021F09EE8872F762F05C0662371F096E8A5
:100C3000862F70E060E02AF09A95660F771F881F74
:100C4000DAF7880F9695879597F90895990F000818
:100C5000550FAA0BE0E8FEEF16161706E807F9078E
:100C6000C0F012161306E407F50798F0621B730B29
:100C7000840B950B39F40A2661F0232B242B252BAA
:100C800021F408950A2609F4A140A6958FEF811D4D
:100C9000811D089597F99F6780E870E060E00895EE
:100CA0009FEF80EC089500240A9416161706180684
:100CB0000906089500240A94121613061406050660
:100CC0000895092E0394000C11F4882352F0BB0FF1
:100CD00040F4BF2B11F460FF04C06F5F7F4F8F4F54
:100CE0009F4F089557FD9058440F551F59F05F3F8F
:100CF00071F04795880F97FB991F61F09F3F79F03E
:100D000087950895121613061406551FF2CF4695BF
:100D1000F1DF08C0161617061806991FF1CF869541
:100D20007105610508940895E894BB276627772725
:100D3000CB0197F908950E94260608F48FEF0895D5
:100D40000E94B3060C9461060E94530638F00E947C
:100D50005A0620F0952311F00C944A060C94500684
:100D600011240C9495060E94720670F3959FC1F3AE
:100D7000950F50E0551F629FF001729FBB27F00D49
:100D8000B11D639FAA27F00DB11DAA1F649F66279E
:100D9000B00DA11D661F829F2227B00DA11D621FED
:100DA000739FB00DA11D621F839FA00D611D221FA7
:100DB000749F3327A00D611D231F849F600D211D8B
:100DC000822F762F6A2F11249F5750409AF0F1F00E
:100DD00088234AF0EE0FFF1FBB1F661F771F881F77
:100DE00091505040A9F79E3F510580F00C944A065F
:100DF0000C9495065F3FE4F3983ED4F3869577957F
:100E00006795B795F795E7959F5FC1F7FE2B880F1C
:100E1000911D9695879597F908950E942606880B4F
:100E2000990B0895A1E21A2EAA1BBB1BFD010DC050
:100E3000AA1FBB1FEE1FFF1FA217B307E407F5078A
:100E400020F0A21BB30BE40BF50B661F771F881F66
:100E5000991F1A9469F760957095809590959B01FC
:100E6000AC01BD01CF010895EE0FFF1F0590F49175
:080E7000E02D0994F894FFCF76
:100E780000000000110171009E005E01CF00AD006E
:100E8800C1006E616E00696E66006F76660056304E
:100E9800203D2000205631203D2000205632203DA4
:100EA8002000205633203D20002054203D20000DF6
:020EB8000A002E
:00000001FF
